{
  "_format": "hh-sol-artifact-1",
  "contractName": "Escrow",
  "sourceName": "contracts/Escrow.sol",
  "abi": [
    {
      "inputs": [
        {
          "internalType": "address",
          "name": "_arbiter",
          "type": "address"
        },
        {
          "internalType": "address payable",
          "name": "_beneficiary",
          "type": "address"
        }
      ],
      "stateMutability": "payable",
      "type": "constructor"
    },
    {
      "anonymous": false,
      "inputs": [
        {
          "indexed": false,
          "internalType": "uint256",
          "name": "",
          "type": "uint256"
        }
      ],
      "name": "Approved",
      "type": "event"
    },
    {
      "anonymous": false,
      "inputs": [
        {
          "indexed": false,
          "internalType": "address",
          "name": "sender",
          "type": "address"
        },
        {
          "indexed": false,
          "internalType": "uint256",
          "name": "amount",
          "type": "uint256"
        }
      ],
      "name": "DepositReceived",
      "type": "event"
    },
    {
      "inputs": [],
      "name": "approve",
      "outputs": [],
      "stateMutability": "payable",
      "type": "function"
    },
    {
      "inputs": [],
      "name": "arbiter",
      "outputs": [
        {
          "internalType": "address",
          "name": "",
          "type": "address"
        }
      ],
      "stateMutability": "view",
      "type": "function"
    },
    {
      "inputs": [],
      "name": "beneficiary",
      "outputs": [
        {
          "internalType": "address",
          "name": "",
          "type": "address"
        }
      ],
      "stateMutability": "view",
      "type": "function"
    },
    {
      "inputs": [],
      "name": "deposit",
      "outputs": [],
      "stateMutability": "payable",
      "type": "function"
    },
    {
      "inputs": [],
      "name": "depositor",
      "outputs": [
        {
          "internalType": "address",
          "name": "",
          "type": "address"
        }
      ],
      "stateMutability": "view",
      "type": "function"
    },
    {
      "inputs": [],
      "name": "getBalance",
      "outputs": [
        {
          "internalType": "uint256",
          "name": "",
          "type": "uint256"
        }
      ],
      "stateMutability": "view",
      "type": "function"
    },
    {
      "inputs": [],
      "name": "isApproved",
      "outputs": [
        {
          "internalType": "bool",
          "name": "",
          "type": "bool"
        }
      ],
      "stateMutability": "view",
      "type": "function"
    }
  ],
  "bytecode": "0x60806040526000600260146101000a81548160ff021916908315150217905550604051610998380380610998833981810160405281019061004091906101e3565b81600260006101000a81548173ffffffffffffffffffffffffffffffffffffffff021916908373ffffffffffffffffffffffffffffffffffffffff16021790555080600160006101000a81548173ffffffffffffffffffffffffffffffffffffffff021916908373ffffffffffffffffffffffffffffffffffffffff160217905550336000806101000a81548173ffffffffffffffffffffffffffffffffffffffff021916908373ffffffffffffffffffffffffffffffffffffffff1602179055507f9936746a4565f9766fa768f88f56a7487c78780ac179562773d1c75c5269537e333460405161013392919061024b565b60405180910390a15050610274565b600080fd5b600073ffffffffffffffffffffffffffffffffffffffff82169050919050565b600061017282610147565b9050919050565b61018281610167565b811461018d57600080fd5b50565b60008151905061019f81610179565b92915050565b60006101b082610147565b9050919050565b6101c0816101a5565b81146101cb57600080fd5b50565b6000815190506101dd816101b7565b92915050565b600080604083850312156101fa576101f9610142565b5b600061020885828601610190565b9250506020610219858286016101ce565b9150509250929050565b61022c81610167565b82525050565b6000819050919050565b61024581610232565b82525050565b60006040820190506102606000830185610223565b61026d602083018461023c565b9392505050565b610715806102836000396000f3fe6080604052600436106100705760003560e01c806338af3eed1161004e57806338af3eed146100d5578063c7c4ff4614610100578063d0e30db01461012b578063fe25e00a1461013557610070565b806312065fe01461007557806312424e3f146100a057806328f371aa146100aa575b600080fd5b34801561008157600080fd5b5061008a610160565b604051610097919061046e565b60405180910390f35b6100a8610168565b005b3480156100b657600080fd5b506100bf610341565b6040516100cc91906104a4565b60405180910390f35b3480156100e157600080fd5b506100ea610354565b6040516100f79190610500565b60405180910390f35b34801561010c57600080fd5b5061011561037a565b6040516101229190610500565b60405180910390f35b61013361039e565b005b34801561014157600080fd5b5061014a61042f565b6040516101579190610500565b60405180910390f35b600047905090565b600260009054906101000a900473ffffffffffffffffffffffffffffffffffffffff1673ffffffffffffffffffffffffffffffffffffffff163373ffffffffffffffffffffffffffffffffffffffff16146101c257600080fd5b60001515600260149054906101000a900460ff16151514610218576040517f08c379a000000000000000000000000000000000000000000000000000000000815260040161020f90610578565b60405180910390fd5b60004790506000600160009054906101000a900473ffffffffffffffffffffffffffffffffffffffff1673ffffffffffffffffffffffffffffffffffffffff1682604051610265906105c9565b60006040518083038185875af1925050503d80600081146102a2576040519150601f19603f3d011682016040523d82523d6000602084013e6102a7565b606091505b50509050806102eb576040517f08c379a00000000000000000000000000000000000000000000000000000000081526004016102e29061062a565b60405180910390fd5b6001600260146101000a81548160ff0219169083151502179055507f3ad93af63cb7967b23e4fb500b7d7d28b07516325dcf341f88bebf959d82c1cb82604051610335919061046e565b60405180910390a15050565b600260149054906101000a900460ff1681565b600160009054906101000a900473ffffffffffffffffffffffffffffffffffffffff1681565b60008054906101000a900473ffffffffffffffffffffffffffffffffffffffff1681565b60001515600260149054906101000a900460ff161515146103f4576040517f08c379a00000000000000000000000000000000000000000000000000000000081526004016103eb90610696565b60405180910390fd5b7f9936746a4565f9766fa768f88f56a7487c78780ac179562773d1c75c5269537e33346040516104259291906106b6565b60405180910390a1565b600260009054906101000a900473ffffffffffffffffffffffffffffffffffffffff1681565b6000819050919050565b61046881610455565b82525050565b6000602082019050610483600083018461045f565b92915050565b60008115159050919050565b61049e81610489565b82525050565b60006020820190506104b96000830184610495565b92915050565b600073ffffffffffffffffffffffffffffffffffffffff82169050919050565b60006104ea826104bf565b9050919050565b6104fa816104df565b82525050565b600060208201905061051560008301846104f1565b92915050565b600082825260208201905092915050565b7f416c726561647920617070726f76656400000000000000000000000000000000600082015250565b600061056260108361051b565b915061056d8261052c565b602082019050919050565b6000602082019050818103600083015261059181610555565b9050919050565b600081905092915050565b50565b60006105b3600083610598565b91506105be826105a3565b600082019050919050565b60006105d4826105a6565b9150819050919050565b7f4661696c656420746f2073656e64204574686572000000000000000000000000600082015250565b600061061460148361051b565b915061061f826105de565b602082019050919050565b6000602082019050818103600083015261064381610607565b9050919050565b7f43616e6e6f74206465706f73697420616674657220617070726f76616c000000600082015250565b6000610680601d8361051b565b915061068b8261064a565b602082019050919050565b600060208201905081810360008301526106af81610673565b9050919050565b60006040820190506106cb60008301856104f1565b6106d8602083018461045f565b939250505056fea264697066735822122023fe84f90d354337961a3e80641281c6c7d99ca26ae15a19ced832620b0bd84b64736f6c63430008110033",
  "linkReferences": {},
  "deployedLinkReferences": {}
}