{
  "_format": "hh-sol-artifact-1",
  "contractName": "Faucet",
  "sourceName": "contracts/Faucet.sol",
  "abi": [
    {
      "inputs": [],
      "stateMutability": "payable",
      "type": "constructor"
    },
    {
      "inputs": [],
      "name": "destroyFaucet",
      "outputs": [],
      "stateMutability": "nonpayable",
      "type": "function"
    },
    {
      "inputs": [],
      "name": "owner",
      "outputs": [
        {
          "internalType": "address payable",
          "name": "",
          "type": "address"
        }
      ],
      "stateMutability": "view",
      "type": "function"
    },
    {
      "inputs": [
        {
          "internalType": "uint256",
          "name": "_amount",
          "type": "uint256"
        }
      ],
      "name": "withdraw",
      "outputs": [],
      "stateMutability": "payable",
      "type": "function"
    },
    {
      "inputs": [],
      "name": "withdrawAll",
      "outputs": [],
      "stateMutability": "nonpayable",
      "type": "function"
    }
  ],
  "bytecode": "0x6080604052336000806101000a81548173ffffffffffffffffffffffffffffffffffffffff021916908373ffffffffffffffffffffffffffffffffffffffff16021790555061050f806100536000396000f3fe60806040526004361061003f5760003560e01c80632e1a7d4d146100445780635700c29014610060578063853828b6146100775780638da5cb5b1461008e575b600080fd5b61005e60048036038101906100599190610370565b6100b9565b005b34801561006c57600080fd5b5061007561017e565b005b34801561008357600080fd5b5061008c61020f565b005b34801561009a57600080fd5b506100a3610337565b6040516100b09190610403565b60405180910390f35b67016345785d8a00008111156100ce57600080fd5b60003373ffffffffffffffffffffffffffffffffffffffff16826040516100f4906103ee565b60006040518083038185875af1925050503d8060008114610131576040519150601f19603f3d011682016040523d82523d6000602084013e610136565b606091505b505090508061017a576040517f08c379a00000000000000000000000000000000000000000000000000000000081526004016101719061041e565b60405180910390fd5b5050565b60008054906101000a900473ffffffffffffffffffffffffffffffffffffffff1673ffffffffffffffffffffffffffffffffffffffff163373ffffffffffffffffffffffffffffffffffffffff16146101d657600080fd5b60008054906101000a900473ffffffffffffffffffffffffffffffffffffffff1673ffffffffffffffffffffffffffffffffffffffff16ff5b60008054906101000a900473ffffffffffffffffffffffffffffffffffffffff1673ffffffffffffffffffffffffffffffffffffffff163373ffffffffffffffffffffffffffffffffffffffff161461026757600080fd5b60008060009054906101000a900473ffffffffffffffffffffffffffffffffffffffff1673ffffffffffffffffffffffffffffffffffffffff16476040516102ae906103ee565b60006040518083038185875af1925050503d80600081146102eb576040519150601f19603f3d011682016040523d82523d6000602084013e6102f0565b606091505b5050905080610334576040517f08c379a000000000000000000000000000000000000000000000000000000000815260040161032b9061041e565b60405180910390fd5b50565b60008054906101000a900473ffffffffffffffffffffffffffffffffffffffff1681565b60008135905061036a816104c2565b92915050565b60006020828403121561038257600080fd5b60006103908482850161035b565b91505092915050565b6103a28161045a565b82525050565b60006103b5601483610449565b91506103c082610496565b602082019050919050565b60006103d860008361043e565b91506103e3826104bf565b600082019050919050565b60006103f9826103cb565b9150819050919050565b60006020820190506104186000830184610399565b92915050565b60006020820190508181036000830152610437816103a8565b9050919050565b600081905092915050565b600082825260208201905092915050565b60006104658261046c565b9050919050565b600073ffffffffffffffffffffffffffffffffffffffff82169050919050565b6000819050919050565b7f4661696c656420746f2073656e64204574686572000000000000000000000000600082015250565b50565b6104cb8161048c565b81146104d657600080fd5b5056fea264697066735822122063b275297ef17594c18a131b8edae49c487f4cab3ca75e0837f2b05b7bf83a7264736f6c63430008040033",
  "linkReferences": {},
  "deployedLinkReferences": {}
}